:020000040000FA
:020000000328D3
:040002000034003492
:0A000600831203138501831603170C
:100010008801890183160313850186018701880100
:1000200089010313831285018601870188018901F3
:100030001F209120860188015820AC2018283020EC
:100040000221352002213A2002213F2002214420B2
:100050000221492002214E200221532002210800C2
:1000600080308800C330860008004030880081302E
:1000700086000800203088002030860008001030FC
:1000800088000030860008000830880008308600AC
:10009000080004308800083086000800023088001C
:1000A00089308600080000308800CB3086000800C8
:1000B000692002216E200221732002217820022172
:1000C0007D20022182200221872002218C20022112
:1000D000080080308800C330860008004030880067
:1000E000813086000800203088002030860008001B
:1000F000103088000030860008000830880000308A
:10010000860008000430880018308600080002309D
:100110008800BD308600080000308800003086006E
:1001200008000A30B30000000000000000000000DA
:1001300000000A30B40000000000000000000000D1
:10014000000000000030B500B50BA4281F20B40B40
:10015000A228B30B992808000A30B3000000000061
:1001600000000000000000000A30B40000000000A1
:10017000000000000000000000000030B500B50BDA
:10018000BF285820B40BBD28B30BB4280800363064
:10019000B300000000000000000000000000443038
:1001A000B40000000000000000000000000000009B
:1001B0002C30B500B50BDA28B40BD828B30BCF28F8
:1001C00008003C30B000000000000000000000000B
:1001D00000000000000000000000000000003530BA
:1001E000B10000000000000000000000000000005E
:1001F00000003330B200B20BFB28B10BF928B00B72
:10020000EF2808000230B0000230B10002300000D8
:10021000B200B20B0929B10B0629B00B0429080062
:02400E00F42C90
:02401000FF3F70
:00000001FF
