:020000040000FA
:020000000328D3
:040002000034003492
:0A000600831203138501831603170C
:100010008801890183160313850186018701880100
:1000200089010313831285018601870188018901F3
:100030002320CE20860188015C20E92086018801EA
:1000400095200421182834203921392039213E20D7
:10005000392143203921482039214D20392152208E
:1000600039215720392108000030880000308600EF
:1000700008004030880000308600080020308800EA
:100080007630860008001030880076308600080040
:1000900008308800763086000800043088007E3002
:1000A00086000800023088007E308600080000309C
:1000B00088000030860008006D2039217220392127
:1000C000772039217C20392181203921862039214E
:1000D0008B20392190203921080000308800003021
:1000E000860008004030880000308600080020307C
:1000F0008800EF308600080010308800EF3086005E
:10010000080008308800EF308600080004308800BE
:10011000EF308600080002308800003086000800BA
:1001200000308800003086000800A6203921AB206E
:100130003921B0203921B5203921BA203921BF20F9
:100140003921C4203921C920392108000030880014
:10015000003086000800403088000030860008002B
:1001600020308800BF308600080010308800DF3063
:100170008600080008308800BF3086000800043080
:1001800088000030860008000030880000308600BB
:100190000800003088000030860008000A30B300F4
:1001A0000000000000000000000000000A30B40061
:1001B000000000000000000000000000000000300F
:1001C000B500B50BE1282320B40BDF28B30BD628EC
:1001D00008000A30B300000000000000000000002A
:1001E00000000A30B4000000000000000000000021
:1001F000000000000030B500B50BFC285C20B40BFB
:10020000FA28B30BF12808000A30B3000000000000
:1002100000000000000000000A30B40000000000F0
:10022000000000000000000000000030B500B50B29
:1002300017299520B40B1529B30B0C29080036306B
:10024000B300000000000000000000000000443087
:10025000B4000000000000000000000000000000EA
:100260002C30B500B50B3229B40B3029B30B27293C
:1002700008000530B0000530B10005300000B200C4
:0E028000B20B4029B10B3D29B00B3B29080001
:02400E00F42C90
:02401000FF3F70
:00000001FF
